{
	"data": {
		"bytecode": {
			"linkReferences": {},
			"object": "6080604052348015600e575f5ffd5b506113f58061001c5f395ff3fe608060405234801561000f575f5ffd5b5060043610610029575f3560e01c8063f48d77291461002d575b5f5ffd5b610047600480360381019061004291906111ee565b61005d565b6040516100549190611248565b60405180910390f35b5f5f600167ffffffffffffffff81111561007a57610079610ee3565b5b6040519080825280602002602001820160405280156100a85781602001602082028036833780820191505090505b5090505f5f90505b60018110156100fd578381600181106100cc576100cb611261565b5b60200201518282815181106100e4576100e3611261565b5b60200260200101818152505080806001019150506100b0565b505f6101098286610123565b0361011857600191505061011d565b5f9150505b92915050565b5f5f7f30644e72e131a029b85045b68181585d2833e84879b9709143e1f593f000000190505f6101516102ab565b90508060800151516001865161016791906112bb565b14610170575f5ffd5b5f60405180604001604052805f81526020015f81525090505f5f90505b865181101561022157838782815181106101aa576101a9611261565b5b6020026020010151106101bb575f5ffd5b6102128261020d85608001516001856101d491906112bb565b815181106101e5576101e4611261565b5b60200260200101518a8581518110610200576101ff611261565b5b60200260200101516106ad565b61074a565b9150808060010191505061018d565b5061024a8183608001515f8151811061023d5761023c611261565b5b602002602001015161074a565b905061028e855f015186602001516102618461080c565b85604001516102738a6040015161080c565b8760600151610284895f015161080c565b89602001516108aa565b61029e57600193505050506102a5565b5f93505050505b92915050565b6102b3610db5565b60405180604001604052807f150777ae4867f396609f9f97a062815d1bc62a7e0708f85cdc3f3eaf6de4b41781526020017f149400410d1cf8ba6ca611b13fbbcc117af8770b44b3cfd631e5678cc6db7d34815250815f0181905250604051806040016040528060405180604001604052807f21bc60070edafc4dfb92b9cba7dd0eb54aebe4aa7e8d0300a12a8eff67422cdd81526020017f013b03445b52181c42caec0777c81b3235f18848a7221c1cf9206d734be9b127815250815260200160405180604001604052807f2a7c00314a1a0aba7f2ffe5ae37304ebed481e470d841b89d371f0bc1b3ce8b281526020017f0f60b6626b65c9afff577bd61fc6de846e0e351856ebfc5c5656bef781a3703a8152508152508160200181905250604051806040016040528060405180604001604052807f0b862eea4c34423fb321b7bda0b3d89adeef37014ba816c144e76f63e699c92881526020017f2a0793035252b1335d7430f0f520efba325f77d7cfd92459bc9fbf10a7dd3b7c815250815260200160405180604001604052807f2f4cfc48fd3b0049396a51792e4d018e92c00c8d2a60c70710006a0dfac1737081526020017f0fa147a266311dbd085789ec16ee081d3e797824ec19a746bab80835611b0bf68152508152508160400181905250604051806040016040528060405180604001604052807f030e3e6a8c2f195178d2ba6ce66574f5cde2a114b8c5bb76d58d7d64c03c19c781526020017f1cbe2fc636dd4bf53681dea6c7eb3277b3d7c0a3b5c3e3ccc2db1b070cf23481815250815260200160405180604001604052807f104f2782032b44d69f3079a5fc7b141b6ece02df337c95f50093e9d7fa86ced781526020017f238e7607964f05b3f3247ab00b9d4b3ff825821c0b98c6ec9504ac6ae8dc0b7e8152508152508160600181905250600267ffffffffffffffff81111561057957610578610ee3565b5b6040519080825280602002602001820160405280156105b257816020015b61059f610dfc565b8152602001906001900390816105975790505b50816080018190525060405180604001604052807f0470b22ad73bc9a8ee904c282bf09a94406fa6de158210dd4d921094e6d22f2b81526020017f04ab1e429454e0ea95e41c07449979c5994ec76b91c2319821eafebe57c2154d81525081608001515f8151811061062757610626611261565b5b602002602001018190525060405180604001604052807f1df508623cc21fd94aaa38debe49116bcbfe9f1beba2ea6c00353353ddb005d981526020017f200514b89d40045934480879c80f34dec8656d969e79ee41056cf06d712c5afc815250816080015160018151811061069f5761069e611261565b5b602002602001018190525090565b6106b5610dfc565b6106bd610e14565b835f0151815f600381106106d4576106d3611261565b5b6020020181815250508360200151816001600381106106f6576106f5611261565b5b602002018181525050828160026003811061071457610713611261565b5b6020020181815250505f60608360808460076107d05a03fa9050805f810361073857fe5b5080610742575f5ffd5b505092915050565b610752610dfc565b61075a610e36565b835f0151815f6004811061077157610770611261565b5b60200201818152505083602001518160016004811061079357610792611261565b5b602002018181525050825f0151816002600481106107b4576107b3611261565b5b6020020181815250508260200151816003600481106107d6576107d5611261565b5b6020020181815250505f60608360c08460066107d05a03fa9050805f81036107fa57fe5b5080610804575f5ffd5b505092915050565b610814610dfc565b5f7f30644e72e131a029b85045b68181585d97816a916871ca8d3c208c16d87cfd4790505f835f015114801561084d57505f8360200151145b1561086f5760405180604001604052805f81526020015f8152509150506108a5565b6040518060400160405280845f01518152602001828560200151610893919061131b565b8361089e919061134b565b8152509150505b919050565b5f5f600467ffffffffffffffff8111156108c7576108c6610ee3565b5b60405190808252806020026020018201604052801561090057816020015b6108ed610dfc565b8152602001906001900390816108e55790505b5090505f600467ffffffffffffffff81111561091f5761091e610ee3565b5b60405190808252806020026020018201604052801561095857816020015b610945610e58565b81526020019060019003908161093d5790505b5090508a825f8151811061096f5761096e611261565b5b6020026020010181905250888260018151811061098f5761098e611261565b5b602002602001018190525086826002815181106109af576109ae611261565b5b602002602001018190525084826003815181106109cf576109ce611261565b5b602002602001018190525089815f815181106109ee576109ed611261565b5b60200260200101819052508781600181518110610a0e57610a0d611261565b5b60200260200101819052508581600281518110610a2e57610a2d611261565b5b60200260200101819052508381600381518110610a4e57610a4d611261565b5b6020026020010181905250610a638282610a73565b9250505098975050505050505050565b5f8151835114610a81575f5ffd5b5f835190505f600682610a94919061137e565b90505f8167ffffffffffffffff811115610ab157610ab0610ee3565b5b604051908082528060200260200182016040528015610adf5781602001602082028036833780820191505090505b5090505f5f90505b83811015610d5a57868181518110610b0257610b01611261565b5b60200260200101515f0151825f600684610b1c919061137e565b610b2691906112bb565b81518110610b3757610b36611261565b5b602002602001018181525050868181518110610b5657610b55611261565b5b602002602001015160200151826001600684610b72919061137e565b610b7c91906112bb565b81518110610b8d57610b8c611261565b5b602002602001018181525050858181518110610bac57610bab611261565b5b60200260200101515f0151600160028110610bca57610bc9611261565b5b6020020151826002600684610bdf919061137e565b610be991906112bb565b81518110610bfa57610bf9611261565b5b602002602001018181525050858181518110610c1957610c18611261565b5b60200260200101515f01515f60028110610c3657610c35611261565b5b6020020151826003600684610c4b919061137e565b610c5591906112bb565b81518110610c6657610c65611261565b5b602002602001018181525050858181518110610c8557610c84611261565b5b602002602001015160200151600160028110610ca457610ca3611261565b5b6020020151826004600684610cb9919061137e565b610cc391906112bb565b81518110610cd457610cd3611261565b5b602002602001018181525050858181518110610cf357610cf2611261565b5b6020026020010151602001515f60028110610d1157610d10611261565b5b6020020151826005600684610d26919061137e565b610d3091906112bb565b81518110610d4157610d40611261565b5b6020026020010181815250508080600101915050610ae7565b50610d63610e7e565b5f602082602086026020860160086107d05a03fa9050805f8103610d8357fe5b5080610d8d575f5ffd5b5f825f60018110610da157610da0611261565b5b602002015114159550505050505092915050565b6040518060a00160405280610dc8610dfc565b8152602001610dd5610e58565b8152602001610de2610e58565b8152602001610def610e58565b8152602001606081525090565b60405180604001604052805f81526020015f81525090565b6040518060600160405280600390602082028036833780820191505090505090565b6040518060800160405280600490602082028036833780820191505090505090565b6040518060400160405280610e6b610ea0565b8152602001610e78610ea0565b81525090565b6040518060200160405280600190602082028036833780820191505090505090565b6040518060400160405280600290602082028036833780820191505090505090565b5f604051905090565b5f5ffd5b5f5ffd5b5f601f19601f8301169050919050565b7f4e487b71000000000000000000000000000000000000000000000000000000005f52604160045260245ffd5b610f1982610ed3565b810181811067ffffffffffffffff82111715610f3857610f37610ee3565b5b80604052505050565b5f610f4a610ec2565b9050610f568282610f10565b919050565b5f819050919050565b610f6d81610f5b565b8114610f77575f5ffd5b50565b5f81359050610f8881610f64565b92915050565b5f60408284031215610fa357610fa2610ecf565b5b610fad6040610f41565b90505f610fbc84828501610f7a565b5f830152506020610fcf84828501610f7a565b60208301525092915050565b5f5ffd5b5f67ffffffffffffffff821115610ff957610ff8610ee3565b5b602082029050919050565b5f5ffd5b5f61101a61101584610fdf565b610f41565b9050806020840283018581111561103457611033611004565b5b835b8181101561105d57806110498882610f7a565b845260208401935050602081019050611036565b5050509392505050565b5f82601f83011261107b5761107a610fdb565b5b6002611088848285611008565b91505092915050565b5f608082840312156110a6576110a5610ecf565b5b6110b06040610f41565b90505f6110bf84828501611067565b5f8301525060406110d284828501611067565b60208301525092915050565b5f61010082840312156110f4576110f3610ecf565b5b6110fe6060610f41565b90505f61110d84828501610f8e565b5f83015250604061112084828501611091565b60208301525060c061113484828501610f8e565b60408301525092915050565b5f67ffffffffffffffff82111561115a57611159610ee3565b5b602082029050919050565b5f61117761117284611140565b610f41565b9050806020840283018581111561119157611190611004565b5b835b818110156111ba57806111a68882610f7a565b845260208401935050602081019050611193565b5050509392505050565b5f82601f8301126111d8576111d7610fdb565b5b60016111e5848285611165565b91505092915050565b5f5f610120838503121561120557611204610ecb565b5b5f611212858286016110de565b925050610100611224858286016111c4565b9150509250929050565b5f8115159050919050565b6112428161122e565b82525050565b5f60208201905061125b5f830184611239565b92915050565b7f4e487b71000000000000000000000000000000000000000000000000000000005f52603260045260245ffd5b7f4e487b71000000000000000000000000000000000000000000000000000000005f52601160045260245ffd5b5f6112c582610f5b565b91506112d083610f5b565b92508282019050808211156112e8576112e761128e565b5b92915050565b7f4e487b71000000000000000000000000000000000000000000000000000000005f52601260045260245ffd5b5f61132582610f5b565b915061133083610f5b565b9250826113405761133f6112ee565b5b828206905092915050565b5f61135582610f5b565b915061136083610f5b565b92508282039050818111156113785761137761128e565b5b92915050565b5f61138882610f5b565b915061139383610f5b565b92508282026113a181610f5b565b915082820484148315176113b8576113b761128e565b5b509291505056fea2646970667358221220ad03d361bd6cc28854fbd7cb814d3cd91a0973416121b0c84e7a07354f64269e64736f6c634300081b0033",
			"opcodes": "PUSH1 0x80 PUSH1 0x40 MSTORE CALLVALUE DUP1 ISZERO PUSH1 0xE JUMPI PUSH0 PUSH0 REVERT JUMPDEST POP PUSH2 0x13F5 DUP1 PUSH2 0x1C PUSH0 CODECOPY PUSH0 RETURN INVALID PUSH1 0x80 PUSH1 0x40 MSTORE CALLVALUE DUP1 ISZERO PUSH2 0xF JUMPI PUSH0 PUSH0 REVERT JUMPDEST POP PUSH1 0x4 CALLDATASIZE LT PUSH2 0x29 JUMPI PUSH0 CALLDATALOAD PUSH1 0xE0 SHR DUP1 PUSH4 0xF48D7729 EQ PUSH2 0x2D JUMPI JUMPDEST PUSH0 PUSH0 REVERT JUMPDEST PUSH2 0x47 PUSH1 0x4 DUP1 CALLDATASIZE SUB DUP2 ADD SWAP1 PUSH2 0x42 SWAP2 SWAP1 PUSH2 0x11EE JUMP JUMPDEST PUSH2 0x5D JUMP JUMPDEST PUSH1 0x40 MLOAD PUSH2 0x54 SWAP2 SWAP1 PUSH2 0x1248 JUMP JUMPDEST PUSH1 0x40 MLOAD DUP1 SWAP2 SUB SWAP1 RETURN JUMPDEST PUSH0 PUSH0 PUSH1 0x1 PUSH8 0xFFFFFFFFFFFFFFFF DUP2 GT ISZERO PUSH2 0x7A JUMPI PUSH2 0x79 PUSH2 0xEE3 JUMP JUMPDEST JUMPDEST PUSH1 0x40 MLOAD SWAP1 DUP1 DUP3 MSTORE DUP1 PUSH1 0x20 MUL PUSH1 0x20 ADD DUP3 ADD PUSH1 0x40 MSTORE DUP1 ISZERO PUSH2 0xA8 JUMPI DUP2 PUSH1 0x20 ADD PUSH1 0x20 DUP3 MUL DUP1 CALLDATASIZE DUP4 CALLDATACOPY DUP1 DUP3 ADD SWAP2 POP POP SWAP1 POP JUMPDEST POP SWAP1 POP PUSH0 PUSH0 SWAP1 POP JUMPDEST PUSH1 0x1 DUP2 LT ISZERO PUSH2 0xFD JUMPI DUP4 DUP2 PUSH1 0x1 DUP2 LT PUSH2 0xCC JUMPI PUSH2 0xCB PUSH2 0x1261 JUMP JUMPDEST JUMPDEST PUSH1 0x20 MUL ADD MLOAD DUP3 DUP3 DUP2 MLOAD DUP2 LT PUSH2 0xE4 JUMPI PUSH2 0xE3 PUSH2 0x1261 JUMP JUMPDEST JUMPDEST PUSH1 0x20 MUL PUSH1 0x20 ADD ADD DUP2 DUP2 MSTORE POP POP DUP1 DUP1 PUSH1 0x1 ADD SWAP2 POP POP PUSH2 0xB0 JUMP JUMPDEST POP PUSH0 PUSH2 0x109 DUP3 DUP7 PUSH2 0x123 JUMP JUMPDEST SUB PUSH2 0x118 JUMPI PUSH1 0x1 SWAP2 POP POP PUSH2 0x11D JUMP JUMPDEST PUSH0 SWAP2 POP POP JUMPDEST SWAP3 SWAP2 POP POP JUMP JUMPDEST PUSH0 PUSH0 PUSH32 0x30644E72E131A029B85045B68181585D2833E84879B9709143E1F593F0000001 SWAP1 POP PUSH0 PUSH2 0x151 PUSH2 0x2AB JUMP JUMPDEST SWAP1 POP DUP1 PUSH1 0x80 ADD MLOAD MLOAD PUSH1 0x1 DUP7 MLOAD PUSH2 0x167 SWAP2 SWAP1 PUSH2 0x12BB JUMP JUMPDEST EQ PUSH2 0x170 JUMPI PUSH0 PUSH0 REVERT JUMPDEST PUSH0 PUSH1 0x40 MLOAD DUP1 PUSH1 0x40 ADD PUSH1 0x40 MSTORE DUP1 PUSH0 DUP2 MSTORE PUSH1 0x20 ADD PUSH0 DUP2 MSTORE POP SWAP1 POP PUSH0 PUSH0 SWAP1 POP JUMPDEST DUP7 MLOAD DUP2 LT ISZERO PUSH2 0x221 JUMPI DUP4 DUP8 DUP3 DUP2 MLOAD DUP2 LT PUSH2 0x1AA JUMPI PUSH2 0x1A9 PUSH2 0x1261 JUMP JUMPDEST JUMPDEST PUSH1 0x20 MUL PUSH1 0x20 ADD ADD MLOAD LT PUSH2 0x1BB JUMPI PUSH0 PUSH0 REVERT JUMPDEST PUSH2 0x212 DUP3 PUSH2 0x20D DUP6 PUSH1 0x80 ADD MLOAD PUSH1 0x1 DUP6 PUSH2 0x1D4 SWAP2 SWAP1 PUSH2 0x12BB JUMP JUMPDEST DUP2 MLOAD DUP2 LT PUSH2 0x1E5 JUMPI PUSH2 0x1E4 PUSH2 0x1261 JUMP JUMPDEST JUMPDEST PUSH1 0x20 MUL PUSH1 0x20 ADD ADD MLOAD DUP11 DUP6 DUP2 MLOAD DUP2 LT PUSH2 0x200 JUMPI PUSH2 0x1FF PUSH2 0x1261 JUMP JUMPDEST JUMPDEST PUSH1 0x20 MUL PUSH1 0x20 ADD ADD MLOAD PUSH2 0x6AD JUMP JUMPDEST PUSH2 0x74A JUMP JUMPDEST SWAP2 POP DUP1 DUP1 PUSH1 0x1 ADD SWAP2 POP POP PUSH2 0x18D JUMP JUMPDEST POP PUSH2 0x24A DUP2 DUP4 PUSH1 0x80 ADD MLOAD PUSH0 DUP2 MLOAD DUP2 LT PUSH2 0x23D JUMPI PUSH2 0x23C PUSH2 0x1261 JUMP JUMPDEST JUMPDEST PUSH1 0x20 MUL PUSH1 0x20 ADD ADD MLOAD PUSH2 0x74A JUMP JUMPDEST SWAP1 POP PUSH2 0x28E DUP6 PUSH0 ADD MLOAD DUP7 PUSH1 0x20 ADD MLOAD PUSH2 0x261 DUP5 PUSH2 0x80C JUMP JUMPDEST DUP6 PUSH1 0x40 ADD MLOAD PUSH2 0x273 DUP11 PUSH1 0x40 ADD MLOAD PUSH2 0x80C JUMP JUMPDEST DUP8 PUSH1 0x60 ADD MLOAD PUSH2 0x284 DUP10 PUSH0 ADD MLOAD PUSH2 0x80C JUMP JUMPDEST DUP10 PUSH1 0x20 ADD MLOAD PUSH2 0x8AA JUMP JUMPDEST PUSH2 0x29E JUMPI PUSH1 0x1 SWAP4 POP POP POP POP PUSH2 0x2A5 JUMP JUMPDEST PUSH0 SWAP4 POP POP POP POP JUMPDEST SWAP3 SWAP2 POP POP JUMP JUMPDEST PUSH2 0x2B3 PUSH2 0xDB5 JUMP JUMPDEST PUSH1 0x40 MLOAD DUP1 PUSH1 0x40 ADD PUSH1 0x40 MSTORE DUP1 PUSH32 0x150777AE4867F396609F9F97A062815D1BC62A7E0708F85CDC3F3EAF6DE4B417 DUP2 MSTORE PUSH1 0x20 ADD PUSH32 0x149400410D1CF8BA6CA611B13FBBCC117AF8770B44B3CFD631E5678CC6DB7D34 DUP2 MSTORE POP DUP2 PUSH0 ADD DUP2 SWAP1 MSTORE POP PUSH1 0x40 MLOAD DUP1 PUSH1 0x40 ADD PUSH1 0x40 MSTORE DUP1 PUSH1 0x40 MLOAD DUP1 PUSH1 0x40 ADD PUSH1 0x40 MSTORE DUP1 PUSH32 0x21BC60070EDAFC4DFB92B9CBA7DD0EB54AEBE4AA7E8D0300A12A8EFF67422CDD DUP2 MSTORE PUSH1 0x20 ADD PUSH32 0x13B03445B52181C42CAEC0777C81B3235F18848A7221C1CF9206D734BE9B127 DUP2 MSTORE POP DUP2 MSTORE PUSH1 0x20 ADD PUSH1 0x40 MLOAD DUP1 PUSH1 0x40 ADD PUSH1 0x40 MSTORE DUP1 PUSH32 0x2A7C00314A1A0ABA7F2FFE5AE37304EBED481E470D841B89D371F0BC1B3CE8B2 DUP2 MSTORE PUSH1 0x20 ADD PUSH32 0xF60B6626B65C9AFFF577BD61FC6DE846E0E351856EBFC5C5656BEF781A3703A DUP2 MSTORE POP DUP2 MSTORE POP DUP2 PUSH1 0x20 ADD DUP2 SWAP1 MSTORE POP PUSH1 0x40 MLOAD DUP1 PUSH1 0x40 ADD PUSH1 0x40 MSTORE DUP1 PUSH1 0x40 MLOAD DUP1 PUSH1 0x40 ADD PUSH1 0x40 MSTORE DUP1 PUSH32 0xB862EEA4C34423FB321B7BDA0B3D89ADEEF37014BA816C144E76F63E699C928 DUP2 MSTORE PUSH1 0x20 ADD PUSH32 0x2A0793035252B1335D7430F0F520EFBA325F77D7CFD92459BC9FBF10A7DD3B7C DUP2 MSTORE POP DUP2 MSTORE PUSH1 0x20 ADD PUSH1 0x40 MLOAD DUP1 PUSH1 0x40 ADD PUSH1 0x40 MSTORE DUP1 PUSH32 0x2F4CFC48FD3B0049396A51792E4D018E92C00C8D2A60C70710006A0DFAC17370 DUP2 MSTORE PUSH1 0x20 ADD PUSH32 0xFA147A266311DBD085789EC16EE081D3E797824EC19A746BAB80835611B0BF6 DUP2 MSTORE POP DUP2 MSTORE POP DUP2 PUSH1 0x40 ADD DUP2 SWAP1 MSTORE POP PUSH1 0x40 MLOAD DUP1 PUSH1 0x40 ADD PUSH1 0x40 MSTORE DUP1 PUSH1 0x40 MLOAD DUP1 PUSH1 0x40 ADD PUSH1 0x40 MSTORE DUP1 PUSH32 0x30E3E6A8C2F195178D2BA6CE66574F5CDE2A114B8C5BB76D58D7D64C03C19C7 DUP2 MSTORE PUSH1 0x20 ADD PUSH32 0x1CBE2FC636DD4BF53681DEA6C7EB3277B3D7C0A3B5C3E3CCC2DB1B070CF23481 DUP2 MSTORE POP DUP2 MSTORE PUSH1 0x20 ADD PUSH1 0x40 MLOAD DUP1 PUSH1 0x40 ADD PUSH1 0x40 MSTORE DUP1 PUSH32 0x104F2782032B44D69F3079A5FC7B141B6ECE02DF337C95F50093E9D7FA86CED7 DUP2 MSTORE PUSH1 0x20 ADD PUSH32 0x238E7607964F05B3F3247AB00B9D4B3FF825821C0B98C6EC9504AC6AE8DC0B7E DUP2 MSTORE POP DUP2 MSTORE POP DUP2 PUSH1 0x60 ADD DUP2 SWAP1 MSTORE POP PUSH1 0x2 PUSH8 0xFFFFFFFFFFFFFFFF DUP2 GT ISZERO PUSH2 0x579 JUMPI PUSH2 0x578 PUSH2 0xEE3 JUMP JUMPDEST JUMPDEST PUSH1 0x40 MLOAD SWAP1 DUP1 DUP3 MSTORE DUP1 PUSH1 0x20 MUL PUSH1 0x20 ADD DUP3 ADD PUSH1 0x40 MSTORE DUP1 ISZERO PUSH2 0x5B2 JUMPI DUP2 PUSH1 0x20 ADD JUMPDEST PUSH2 0x59F PUSH2 0xDFC JUMP JUMPDEST DUP2 MSTORE PUSH1 0x20 ADD SWAP1 PUSH1 0x1 SWAP1 SUB SWAP1 DUP2 PUSH2 0x597 JUMPI SWAP1 POP JUMPDEST POP DUP2 PUSH1 0x80 ADD DUP2 SWAP1 MSTORE POP PUSH1 0x40 MLOAD DUP1 PUSH1 0x40 ADD PUSH1 0x40 MSTORE DUP1 PUSH32 0x470B22AD73BC9A8EE904C282BF09A94406FA6DE158210DD4D921094E6D22F2B DUP2 MSTORE PUSH1 0x20 ADD PUSH32 0x4AB1E429454E0EA95E41C07449979C5994EC76B91C2319821EAFEBE57C2154D DUP2 MSTORE POP DUP2 PUSH1 0x80 ADD MLOAD PUSH0 DUP2 MLOAD DUP2 LT PUSH2 0x627 JUMPI PUSH2 0x626 PUSH2 0x1261 JUMP JUMPDEST JUMPDEST PUSH1 0x20 MUL PUSH1 0x20 ADD ADD DUP2 SWAP1 MSTORE POP PUSH1 0x40 MLOAD DUP1 PUSH1 0x40 ADD PUSH1 0x40 MSTORE DUP1 PUSH32 0x1DF508623CC21FD94AAA38DEBE49116BCBFE9F1BEBA2EA6C00353353DDB005D9 DUP2 MSTORE PUSH1 0x20 ADD PUSH32 0x200514B89D40045934480879C80F34DEC8656D969E79EE41056CF06D712C5AFC DUP2 MSTORE POP DUP2 PUSH1 0x80 ADD MLOAD PUSH1 0x1 DUP2 MLOAD DUP2 LT PUSH2 0x69F JUMPI PUSH2 0x69E PUSH2 0x1261 JUMP JUMPDEST JUMPDEST PUSH1 0x20 MUL PUSH1 0x20 ADD ADD DUP2 SWAP1 MSTORE POP SWAP1 JUMP JUMPDEST PUSH2 0x6B5 PUSH2 0xDFC JUMP JUMPDEST PUSH2 0x6BD PUSH2 0xE14 JUMP JUMPDEST DUP4 PUSH0 ADD MLOAD DUP2 PUSH0 PUSH1 0x3 DUP2 LT PUSH2 0x6D4 JUMPI PUSH2 0x6D3 PUSH2 0x1261 JUMP JUMPDEST JUMPDEST PUSH1 0x20 MUL ADD DUP2 DUP2 MSTORE POP POP DUP4 PUSH1 0x20 ADD MLOAD DUP2 PUSH1 0x1 PUSH1 0x3 DUP2 LT PUSH2 0x6F6 JUMPI PUSH2 0x6F5 PUSH2 0x1261 JUMP JUMPDEST JUMPDEST PUSH1 0x20 MUL ADD DUP2 DUP2 MSTORE POP POP DUP3 DUP2 PUSH1 0x2 PUSH1 0x3 DUP2 LT PUSH2 0x714 JUMPI PUSH2 0x713 PUSH2 0x1261 JUMP JUMPDEST JUMPDEST PUSH1 0x20 MUL ADD DUP2 DUP2 MSTORE POP POP PUSH0 PUSH1 0x60 DUP4 PUSH1 0x80 DUP5 PUSH1 0x7 PUSH2 0x7D0 GAS SUB STATICCALL SWAP1 POP DUP1 PUSH0 DUP2 SUB PUSH2 0x738 JUMPI INVALID JUMPDEST POP DUP1 PUSH2 0x742 JUMPI PUSH0 PUSH0 REVERT JUMPDEST POP POP SWAP3 SWAP2 POP POP JUMP JUMPDEST PUSH2 0x752 PUSH2 0xDFC JUMP JUMPDEST PUSH2 0x75A PUSH2 0xE36 JUMP JUMPDEST DUP4 PUSH0 ADD MLOAD DUP2 PUSH0 PUSH1 0x4 DUP2 LT PUSH2 0x771 JUMPI PUSH2 0x770 PUSH2 0x1261 JUMP JUMPDEST JUMPDEST PUSH1 0x20 MUL ADD DUP2 DUP2 MSTORE POP POP DUP4 PUSH1 0x20 ADD MLOAD DUP2 PUSH1 0x1 PUSH1 0x4 DUP2 LT PUSH2 0x793 JUMPI PUSH2 0x792 PUSH2 0x1261 JUMP JUMPDEST JUMPDEST PUSH1 0x20 MUL ADD DUP2 DUP2 MSTORE POP POP DUP3 PUSH0 ADD MLOAD DUP2 PUSH1 0x2 PUSH1 0x4 DUP2 LT PUSH2 0x7B4 JUMPI PUSH2 0x7B3 PUSH2 0x1261 JUMP JUMPDEST JUMPDEST PUSH1 0x20 MUL ADD DUP2 DUP2 MSTORE POP POP DUP3 PUSH1 0x20 ADD MLOAD DUP2 PUSH1 0x3 PUSH1 0x4 DUP2 LT PUSH2 0x7D6 JUMPI PUSH2 0x7D5 PUSH2 0x1261 JUMP JUMPDEST JUMPDEST PUSH1 0x20 MUL ADD DUP2 DUP2 MSTORE POP POP PUSH0 PUSH1 0x60 DUP4 PUSH1 0xC0 DUP5 PUSH1 0x6 PUSH2 0x7D0 GAS SUB STATICCALL SWAP1 POP DUP1 PUSH0 DUP2 SUB PUSH2 0x7FA JUMPI INVALID JUMPDEST POP DUP1 PUSH2 0x804 JUMPI PUSH0 PUSH0 REVERT JUMPDEST POP POP SWAP3 SWAP2 POP POP JUMP JUMPDEST PUSH2 0x814 PUSH2 0xDFC JUMP JUMPDEST PUSH0 PUSH32 0x30644E72E131A029B85045B68181585D97816A916871CA8D3C208C16D87CFD47 SWAP1 POP PUSH0 DUP4 PUSH0 ADD MLOAD EQ DUP1 ISZERO PUSH2 0x84D JUMPI POP PUSH0 DUP4 PUSH1 0x20 ADD MLOAD EQ JUMPDEST ISZERO PUSH2 0x86F JUMPI PUSH1 0x40 MLOAD DUP1 PUSH1 0x40 ADD PUSH1 0x40 MSTORE DUP1 PUSH0 DUP2 MSTORE PUSH1 0x20 ADD PUSH0 DUP2 MSTORE POP SWAP2 POP POP PUSH2 0x8A5 JUMP JUMPDEST PUSH1 0x40 MLOAD DUP1 PUSH1 0x40 ADD PUSH1 0x40 MSTORE DUP1 DUP5 PUSH0 ADD MLOAD DUP2 MSTORE PUSH1 0x20 ADD DUP3 DUP6 PUSH1 0x20 ADD MLOAD PUSH2 0x893 SWAP2 SWAP1 PUSH2 0x131B JUMP JUMPDEST DUP4 PUSH2 0x89E SWAP2 SWAP1 PUSH2 0x134B JUMP JUMPDEST DUP2 MSTORE POP SWAP2 POP POP JUMPDEST SWAP2 SWAP1 POP JUMP JUMPDEST PUSH0 PUSH0 PUSH1 0x4 PUSH8 0xFFFFFFFFFFFFFFFF DUP2 GT ISZERO PUSH2 0x8C7 JUMPI PUSH2 0x8C6 PUSH2 0xEE3 JUMP JUMPDEST JUMPDEST PUSH1 0x40 MLOAD SWAP1 DUP1 DUP3 MSTORE DUP1 PUSH1 0x20 MUL PUSH1 0x20 ADD DUP3 ADD PUSH1 0x40 MSTORE DUP1 ISZERO PUSH2 0x900 JUMPI DUP2 PUSH1 0x20 ADD JUMPDEST PUSH2 0x8ED PUSH2 0xDFC JUMP JUMPDEST DUP2 MSTORE PUSH1 0x20 ADD SWAP1 PUSH1 0x1 SWAP1 SUB SWAP1 DUP2 PUSH2 0x8E5 JUMPI SWAP1 POP JUMPDEST POP SWAP1 POP PUSH0 PUSH1 0x4 PUSH8 0xFFFFFFFFFFFFFFFF DUP2 GT ISZERO PUSH2 0x91F JUMPI PUSH2 0x91E PUSH2 0xEE3 JUMP JUMPDEST JUMPDEST PUSH1 0x40 MLOAD SWAP1 DUP1 DUP3 MSTORE DUP1 PUSH1 0x20 MUL PUSH1 0x20 ADD DUP3 ADD PUSH1 0x40 MSTORE DUP1 ISZERO PUSH2 0x958 JUMPI DUP2 PUSH1 0x20 ADD JUMPDEST PUSH2 0x945 PUSH2 0xE58 JUMP JUMPDEST DUP2 MSTORE PUSH1 0x20 ADD SWAP1 PUSH1 0x1 SWAP1 SUB SWAP1 DUP2 PUSH2 0x93D JUMPI SWAP1 POP JUMPDEST POP SWAP1 POP DUP11 DUP3 PUSH0 DUP2 MLOAD DUP2 LT PUSH2 0x96F JUMPI PUSH2 0x96E PUSH2 0x1261 JUMP JUMPDEST JUMPDEST PUSH1 0x20 MUL PUSH1 0x20 ADD ADD DUP2 SWAP1 MSTORE POP DUP9 DUP3 PUSH1 0x1 DUP2 MLOAD DUP2 LT PUSH2 0x98F JUMPI PUSH2 0x98E PUSH2 0x1261 JUMP JUMPDEST JUMPDEST PUSH1 0x20 MUL PUSH1 0x20 ADD ADD DUP2 SWAP1 MSTORE POP DUP7 DUP3 PUSH1 0x2 DUP2 MLOAD DUP2 LT PUSH2 0x9AF JUMPI PUSH2 0x9AE PUSH2 0x1261 JUMP JUMPDEST JUMPDEST PUSH1 0x20 MUL PUSH1 0x20 ADD ADD DUP2 SWAP1 MSTORE POP DUP5 DUP3 PUSH1 0x3 DUP2 MLOAD DUP2 LT PUSH2 0x9CF JUMPI PUSH2 0x9CE PUSH2 0x1261 JUMP JUMPDEST JUMPDEST PUSH1 0x20 MUL PUSH1 0x20 ADD ADD DUP2 SWAP1 MSTORE POP DUP10 DUP2 PUSH0 DUP2 MLOAD DUP2 LT PUSH2 0x9EE JUMPI PUSH2 0x9ED PUSH2 0x1261 JUMP JUMPDEST JUMPDEST PUSH1 0x20 MUL PUSH1 0x20 ADD ADD DUP2 SWAP1 MSTORE POP DUP8 DUP2 PUSH1 0x1 DUP2 MLOAD DUP2 LT PUSH2 0xA0E JUMPI PUSH2 0xA0D PUSH2 0x1261 JUMP JUMPDEST JUMPDEST PUSH1 0x20 MUL PUSH1 0x20 ADD ADD DUP2 SWAP1 MSTORE POP DUP6 DUP2 PUSH1 0x2 DUP2 MLOAD DUP2 LT PUSH2 0xA2E JUMPI PUSH2 0xA2D PUSH2 0x1261 JUMP JUMPDEST JUMPDEST PUSH1 0x20 MUL PUSH1 0x20 ADD ADD DUP2 SWAP1 MSTORE POP DUP4 DUP2 PUSH1 0x3 DUP2 MLOAD DUP2 LT PUSH2 0xA4E JUMPI PUSH2 0xA4D PUSH2 0x1261 JUMP JUMPDEST JUMPDEST PUSH1 0x20 MUL PUSH1 0x20 ADD ADD DUP2 SWAP1 MSTORE POP PUSH2 0xA63 DUP3 DUP3 PUSH2 0xA73 JUMP JUMPDEST SWAP3 POP POP POP SWAP9 SWAP8 POP POP POP POP POP POP POP POP JUMP JUMPDEST PUSH0 DUP2 MLOAD DUP4 MLOAD EQ PUSH2 0xA81 JUMPI PUSH0 PUSH0 REVERT JUMPDEST PUSH0 DUP4 MLOAD SWAP1 POP PUSH0 PUSH1 0x6 DUP3 PUSH2 0xA94 SWAP2 SWAP1 PUSH2 0x137E JUMP JUMPDEST SWAP1 POP PUSH0 DUP2 PUSH8 0xFFFFFFFFFFFFFFFF DUP2 GT ISZERO PUSH2 0xAB1 JUMPI PUSH2 0xAB0 PUSH2 0xEE3 JUMP JUMPDEST JUMPDEST PUSH1 0x40 MLOAD SWAP1 DUP1 DUP3 MSTORE DUP1 PUSH1 0x20 MUL PUSH1 0x20 ADD DUP3 ADD PUSH1 0x40 MSTORE DUP1 ISZERO PUSH2 0xADF JUMPI DUP2 PUSH1 0x20 ADD PUSH1 0x20 DUP3 MUL DUP1 CALLDATASIZE DUP4 CALLDATACOPY DUP1 DUP3 ADD SWAP2 POP POP SWAP1 POP JUMPDEST POP SWAP1 POP PUSH0 PUSH0 SWAP1 POP JUMPDEST DUP4 DUP2 LT ISZERO PUSH2 0xD5A JUMPI DUP7 DUP2 DUP2 MLOAD DUP2 LT PUSH2 0xB02 JUMPI PUSH2 0xB01 PUSH2 0x1261 JUMP JUMPDEST JUMPDEST PUSH1 0x20 MUL PUSH1 0x20 ADD ADD MLOAD PUSH0 ADD MLOAD DUP3 PUSH0 PUSH1 0x6 DUP5 PUSH2 0xB1C SWAP2 SWAP1 PUSH2 0x137E JUMP JUMPDEST PUSH2 0xB26 SWAP2 SWAP1 PUSH2 0x12BB JUMP JUMPDEST DUP2 MLOAD DUP2 LT PUSH2 0xB37 JUMPI PUSH2 0xB36 PUSH2 0x1261 JUMP JUMPDEST JUMPDEST PUSH1 0x20 MUL PUSH1 0x20 ADD ADD DUP2 DUP2 MSTORE POP POP DUP7 DUP2 DUP2 MLOAD DUP2 LT PUSH2 0xB56 JUMPI PUSH2 0xB55 PUSH2 0x1261 JUMP JUMPDEST JUMPDEST PUSH1 0x20 MUL PUSH1 0x20 ADD ADD MLOAD PUSH1 0x20 ADD MLOAD DUP3 PUSH1 0x1 PUSH1 0x6 DUP5 PUSH2 0xB72 SWAP2 SWAP1 PUSH2 0x137E JUMP JUMPDEST PUSH2 0xB7C SWAP2 SWAP1 PUSH2 0x12BB JUMP JUMPDEST DUP2 MLOAD DUP2 LT PUSH2 0xB8D JUMPI PUSH2 0xB8C PUSH2 0x1261 JUMP JUMPDEST JUMPDEST PUSH1 0x20 MUL PUSH1 0x20 ADD ADD DUP2 DUP2 MSTORE POP POP DUP6 DUP2 DUP2 MLOAD DUP2 LT PUSH2 0xBAC JUMPI PUSH2 0xBAB PUSH2 0x1261 JUMP JUMPDEST JUMPDEST PUSH1 0x20 MUL PUSH1 0x20 ADD ADD MLOAD PUSH0 ADD MLOAD PUSH1 0x1 PUSH1 0x2 DUP2 LT PUSH2 0xBCA JUMPI PUSH2 0xBC9 PUSH2 0x1261 JUMP JUMPDEST JUMPDEST PUSH1 0x20 MUL ADD MLOAD DUP3 PUSH1 0x2 PUSH1 0x6 DUP5 PUSH2 0xBDF SWAP2 SWAP1 PUSH2 0x137E JUMP JUMPDEST PUSH2 0xBE9 SWAP2 SWAP1 PUSH2 0x12BB JUMP JUMPDEST DUP2 MLOAD DUP2 LT PUSH2 0xBFA JUMPI PUSH2 0xBF9 PUSH2 0x1261 JUMP JUMPDEST JUMPDEST PUSH1 0x20 MUL PUSH1 0x20 ADD ADD DUP2 DUP2 MSTORE POP POP DUP6 DUP2 DUP2 MLOAD DUP2 LT PUSH2 0xC19 JUMPI PUSH2 0xC18 PUSH2 0x1261 JUMP JUMPDEST JUMPDEST PUSH1 0x20 MUL PUSH1 0x20 ADD ADD MLOAD PUSH0 ADD MLOAD PUSH0 PUSH1 0x2 DUP2 LT PUSH2 0xC36 JUMPI PUSH2 0xC35 PUSH2 0x1261 JUMP JUMPDEST JUMPDEST PUSH1 0x20 MUL ADD MLOAD DUP3 PUSH1 0x3 PUSH1 0x6 DUP5 PUSH2 0xC4B SWAP2 SWAP1 PUSH2 0x137E JUMP JUMPDEST PUSH2 0xC55 SWAP2 SWAP1 PUSH2 0x12BB JUMP JUMPDEST DUP2 MLOAD DUP2 LT PUSH2 0xC66 JUMPI PUSH2 0xC65 PUSH2 0x1261 JUMP JUMPDEST JUMPDEST PUSH1 0x20 MUL PUSH1 0x20 ADD ADD DUP2 DUP2 MSTORE POP POP DUP6 DUP2 DUP2 MLOAD DUP2 LT PUSH2 0xC85 JUMPI PUSH2 0xC84 PUSH2 0x1261 JUMP JUMPDEST JUMPDEST PUSH1 0x20 MUL PUSH1 0x20 ADD ADD MLOAD PUSH1 0x20 ADD MLOAD PUSH1 0x1 PUSH1 0x2 DUP2 LT PUSH2 0xCA4 JUMPI PUSH2 0xCA3 PUSH2 0x1261 JUMP JUMPDEST JUMPDEST PUSH1 0x20 MUL ADD MLOAD DUP3 PUSH1 0x4 PUSH1 0x6 DUP5 PUSH2 0xCB9 SWAP2 SWAP1 PUSH2 0x137E JUMP JUMPDEST PUSH2 0xCC3 SWAP2 SWAP1 PUSH2 0x12BB JUMP JUMPDEST DUP2 MLOAD DUP2 LT PUSH2 0xCD4 JUMPI PUSH2 0xCD3 PUSH2 0x1261 JUMP JUMPDEST JUMPDEST PUSH1 0x20 MUL PUSH1 0x20 ADD ADD DUP2 DUP2 MSTORE POP POP DUP6 DUP2 DUP2 MLOAD DUP2 LT PUSH2 0xCF3 JUMPI PUSH2 0xCF2 PUSH2 0x1261 JUMP JUMPDEST JUMPDEST PUSH1 0x20 MUL PUSH1 0x20 ADD ADD MLOAD PUSH1 0x20 ADD MLOAD PUSH0 PUSH1 0x2 DUP2 LT PUSH2 0xD11 JUMPI PUSH2 0xD10 PUSH2 0x1261 JUMP JUMPDEST JUMPDEST PUSH1 0x20 MUL ADD MLOAD DUP3 PUSH1 0x5 PUSH1 0x6 DUP5 PUSH2 0xD26 SWAP2 SWAP1 PUSH2 0x137E JUMP JUMPDEST PUSH2 0xD30 SWAP2 SWAP1 PUSH2 0x12BB JUMP JUMPDEST DUP2 MLOAD DUP2 LT PUSH2 0xD41 JUMPI PUSH2 0xD40 PUSH2 0x1261 JUMP JUMPDEST JUMPDEST PUSH1 0x20 MUL PUSH1 0x20 ADD ADD DUP2 DUP2 MSTORE POP POP DUP1 DUP1 PUSH1 0x1 ADD SWAP2 POP POP PUSH2 0xAE7 JUMP JUMPDEST POP PUSH2 0xD63 PUSH2 0xE7E JUMP JUMPDEST PUSH0 PUSH1 0x20 DUP3 PUSH1 0x20 DUP7 MUL PUSH1 0x20 DUP7 ADD PUSH1 0x8 PUSH2 0x7D0 GAS SUB STATICCALL SWAP1 POP DUP1 PUSH0 DUP2 SUB PUSH2 0xD83 JUMPI INVALID JUMPDEST POP DUP1 PUSH2 0xD8D JUMPI PUSH0 PUSH0 REVERT JUMPDEST PUSH0 DUP3 PUSH0 PUSH1 0x1 DUP2 LT PUSH2 0xDA1 JUMPI PUSH2 0xDA0 PUSH2 0x1261 JUMP JUMPDEST JUMPDEST PUSH1 0x20 MUL ADD MLOAD EQ ISZERO SWAP6 POP POP POP POP POP POP SWAP3 SWAP2 POP POP JUMP JUMPDEST PUSH1 0x40 MLOAD DUP1 PUSH1 0xA0 ADD PUSH1 0x40 MSTORE DUP1 PUSH2 0xDC8 PUSH2 0xDFC JUMP JUMPDEST DUP2 MSTORE PUSH1 0x20 ADD PUSH2 0xDD5 PUSH2 0xE58 JUMP JUMPDEST DUP2 MSTORE PUSH1 0x20 ADD PUSH2 0xDE2 PUSH2 0xE58 JUMP JUMPDEST DUP2 MSTORE PUSH1 0x20 ADD PUSH2 0xDEF PUSH2 0xE58 JUMP JUMPDEST DUP2 MSTORE PUSH1 0x20 ADD PUSH1 0x60 DUP2 MSTORE POP SWAP1 JUMP JUMPDEST PUSH1 0x40 MLOAD DUP1 PUSH1 0x40 ADD PUSH1 0x40 MSTORE DUP1 PUSH0 DUP2 MSTORE PUSH1 0x20 ADD PUSH0 DUP2 MSTORE POP SWAP1 JUMP JUMPDEST PUSH1 0x40 MLOAD DUP1 PUSH1 0x60 ADD PUSH1 0x40 MSTORE DUP1 PUSH1 0x3 SWAP1 PUSH1 0x20 DUP3 MUL DUP1 CALLDATASIZE DUP4 CALLDATACOPY DUP1 DUP3 ADD SWAP2 POP POP SWAP1 POP POP SWAP1 JUMP JUMPDEST PUSH1 0x40 MLOAD DUP1 PUSH1 0x80 ADD PUSH1 0x40 MSTORE DUP1 PUSH1 0x4 SWAP1 PUSH1 0x20 DUP3 MUL DUP1 CALLDATASIZE DUP4 CALLDATACOPY DUP1 DUP3 ADD SWAP2 POP POP SWAP1 POP POP SWAP1 JUMP JUMPDEST PUSH1 0x40 MLOAD DUP1 PUSH1 0x40 ADD PUSH1 0x40 MSTORE DUP1 PUSH2 0xE6B PUSH2 0xEA0 JUMP JUMPDEST DUP2 MSTORE PUSH1 0x20 ADD PUSH2 0xE78 PUSH2 0xEA0 JUMP JUMPDEST DUP2 MSTORE POP SWAP1 JUMP JUMPDEST PUSH1 0x40 MLOAD DUP1 PUSH1 0x20 ADD PUSH1 0x40 MSTORE DUP1 PUSH1 0x1 SWAP1 PUSH1 0x20 DUP3 MUL DUP1 CALLDATASIZE DUP4 CALLDATACOPY DUP1 DUP3 ADD SWAP2 POP POP SWAP1 POP POP SWAP1 JUMP JUMPDEST PUSH1 0x40 MLOAD DUP1 PUSH1 0x40 ADD PUSH1 0x40 MSTORE DUP1 PUSH1 0x2 SWAP1 PUSH1 0x20 DUP3 MUL DUP1 CALLDATASIZE DUP4 CALLDATACOPY DUP1 DUP3 ADD SWAP2 POP POP SWAP1 POP POP SWAP1 JUMP JUMPDEST PUSH0 PUSH1 0x40 MLOAD SWAP1 POP SWAP1 JUMP JUMPDEST PUSH0 PUSH0 REVERT JUMPDEST PUSH0 PUSH0 REVERT JUMPDEST PUSH0 PUSH1 0x1F NOT PUSH1 0x1F DUP4 ADD AND SWAP1 POP SWAP2 SWAP1 POP JUMP JUMPDEST PUSH32 0x4E487B7100000000000000000000000000000000000000000000000000000000 PUSH0 MSTORE PUSH1 0x41 PUSH1 0x4 MSTORE PUSH1 0x24 PUSH0 REVERT JUMPDEST PUSH2 0xF19 DUP3 PUSH2 0xED3 JUMP JUMPDEST DUP2 ADD DUP2 DUP2 LT PUSH8 0xFFFFFFFFFFFFFFFF DUP3 GT OR ISZERO PUSH2 0xF38 JUMPI PUSH2 0xF37 PUSH2 0xEE3 JUMP JUMPDEST JUMPDEST DUP1 PUSH1 0x40 MSTORE POP POP POP JUMP JUMPDEST PUSH0 PUSH2 0xF4A PUSH2 0xEC2 JUMP JUMPDEST SWAP1 POP PUSH2 0xF56 DUP3 DUP3 PUSH2 0xF10 JUMP JUMPDEST SWAP2 SWAP1 POP JUMP JUMPDEST PUSH0 DUP2 SWAP1 POP SWAP2 SWAP1 POP JUMP JUMPDEST PUSH2 0xF6D DUP2 PUSH2 0xF5B JUMP JUMPDEST DUP2 EQ PUSH2 0xF77 JUMPI PUSH0 PUSH0 REVERT JUMPDEST POP JUMP JUMPDEST PUSH0 DUP2 CALLDATALOAD SWAP1 POP PUSH2 0xF88 DUP2 PUSH2 0xF64 JUMP JUMPDEST SWAP3 SWAP2 POP POP JUMP JUMPDEST PUSH0 PUSH1 0x40 DUP3 DUP5 SUB SLT ISZERO PUSH2 0xFA3 JUMPI PUSH2 0xFA2 PUSH2 0xECF JUMP JUMPDEST JUMPDEST PUSH2 0xFAD PUSH1 0x40 PUSH2 0xF41 JUMP JUMPDEST SWAP1 POP PUSH0 PUSH2 0xFBC DUP5 DUP3 DUP6 ADD PUSH2 0xF7A JUMP JUMPDEST PUSH0 DUP4 ADD MSTORE POP PUSH1 0x20 PUSH2 0xFCF DUP5 DUP3 DUP6 ADD PUSH2 0xF7A JUMP JUMPDEST PUSH1 0x20 DUP4 ADD MSTORE POP SWAP3 SWAP2 POP POP JUMP JUMPDEST PUSH0 PUSH0 REVERT JUMPDEST PUSH0 PUSH8 0xFFFFFFFFFFFFFFFF DUP3 GT ISZERO PUSH2 0xFF9 JUMPI PUSH2 0xFF8 PUSH2 0xEE3 JUMP JUMPDEST JUMPDEST PUSH1 0x20 DUP3 MUL SWAP1 POP SWAP2 SWAP1 POP JUMP JUMPDEST PUSH0 PUSH0 REVERT JUMPDEST PUSH0 PUSH2 0x101A PUSH2 0x1015 DUP5 PUSH2 0xFDF JUMP JUMPDEST PUSH2 0xF41 JUMP JUMPDEST SWAP1 POP DUP1 PUSH1 0x20 DUP5 MUL DUP4 ADD DUP6 DUP2 GT ISZERO PUSH2 0x1034 JUMPI PUSH2 0x1033 PUSH2 0x1004 JUMP JUMPDEST JUMPDEST DUP4 JUMPDEST DUP2 DUP2 LT ISZERO PUSH2 0x105D JUMPI DUP1 PUSH2 0x1049 DUP9 DUP3 PUSH2 0xF7A JUMP JUMPDEST DUP5 MSTORE PUSH1 0x20 DUP5 ADD SWAP4 POP POP PUSH1 0x20 DUP2 ADD SWAP1 POP PUSH2 0x1036 JUMP JUMPDEST POP POP POP SWAP4 SWAP3 POP POP POP JUMP JUMPDEST PUSH0 DUP3 PUSH1 0x1F DUP4 ADD SLT PUSH2 0x107B JUMPI PUSH2 0x107A PUSH2 0xFDB JUMP JUMPDEST JUMPDEST PUSH1 0x2 PUSH2 0x1088 DUP5 DUP3 DUP6 PUSH2 0x1008 JUMP JUMPDEST SWAP2 POP POP SWAP3 SWAP2 POP POP JUMP JUMPDEST PUSH0 PUSH1 0x80 DUP3 DUP5 SUB SLT ISZERO PUSH2 0x10A6 JUMPI PUSH2 0x10A5 PUSH2 0xECF JUMP JUMPDEST JUMPDEST PUSH2 0x10B0 PUSH1 0x40 PUSH2 0xF41 JUMP JUMPDEST SWAP1 POP PUSH0 PUSH2 0x10BF DUP5 DUP3 DUP6 ADD PUSH2 0x1067 JUMP JUMPDEST PUSH0 DUP4 ADD MSTORE POP PUSH1 0x40 PUSH2 0x10D2 DUP5 DUP3 DUP6 ADD PUSH2 0x1067 JUMP JUMPDEST PUSH1 0x20 DUP4 ADD MSTORE POP SWAP3 SWAP2 POP POP JUMP JUMPDEST PUSH0 PUSH2 0x100 DUP3 DUP5 SUB SLT ISZERO PUSH2 0x10F4 JUMPI PUSH2 0x10F3 PUSH2 0xECF JUMP JUMPDEST JUMPDEST PUSH2 0x10FE PUSH1 0x60 PUSH2 0xF41 JUMP JUMPDEST SWAP1 POP PUSH0 PUSH2 0x110D DUP5 DUP3 DUP6 ADD PUSH2 0xF8E JUMP JUMPDEST PUSH0 DUP4 ADD MSTORE POP PUSH1 0x40 PUSH2 0x1120 DUP5 DUP3 DUP6 ADD PUSH2 0x1091 JUMP JUMPDEST PUSH1 0x20 DUP4 ADD MSTORE POP PUSH1 0xC0 PUSH2 0x1134 DUP5 DUP3 DUP6 ADD PUSH2 0xF8E JUMP JUMPDEST PUSH1 0x40 DUP4 ADD MSTORE POP SWAP3 SWAP2 POP POP JUMP JUMPDEST PUSH0 PUSH8 0xFFFFFFFFFFFFFFFF DUP3 GT ISZERO PUSH2 0x115A JUMPI PUSH2 0x1159 PUSH2 0xEE3 JUMP JUMPDEST JUMPDEST PUSH1 0x20 DUP3 MUL SWAP1 POP SWAP2 SWAP1 POP JUMP JUMPDEST PUSH0 PUSH2 0x1177 PUSH2 0x1172 DUP5 PUSH2 0x1140 JUMP JUMPDEST PUSH2 0xF41 JUMP JUMPDEST SWAP1 POP DUP1 PUSH1 0x20 DUP5 MUL DUP4 ADD DUP6 DUP2 GT ISZERO PUSH2 0x1191 JUMPI PUSH2 0x1190 PUSH2 0x1004 JUMP JUMPDEST JUMPDEST DUP4 JUMPDEST DUP2 DUP2 LT ISZERO PUSH2 0x11BA JUMPI DUP1 PUSH2 0x11A6 DUP9 DUP3 PUSH2 0xF7A JUMP JUMPDEST DUP5 MSTORE PUSH1 0x20 DUP5 ADD SWAP4 POP POP PUSH1 0x20 DUP2 ADD SWAP1 POP PUSH2 0x1193 JUMP JUMPDEST POP POP POP SWAP4 SWAP3 POP POP POP JUMP JUMPDEST PUSH0 DUP3 PUSH1 0x1F DUP4 ADD SLT PUSH2 0x11D8 JUMPI PUSH2 0x11D7 PUSH2 0xFDB JUMP JUMPDEST JUMPDEST PUSH1 0x1 PUSH2 0x11E5 DUP5 DUP3 DUP6 PUSH2 0x1165 JUMP JUMPDEST SWAP2 POP POP SWAP3 SWAP2 POP POP JUMP JUMPDEST PUSH0 PUSH0 PUSH2 0x120 DUP4 DUP6 SUB SLT ISZERO PUSH2 0x1205 JUMPI PUSH2 0x1204 PUSH2 0xECB JUMP JUMPDEST JUMPDEST PUSH0 PUSH2 0x1212 DUP6 DUP3 DUP7 ADD PUSH2 0x10DE JUMP JUMPDEST SWAP3 POP POP PUSH2 0x100 PUSH2 0x1224 DUP6 DUP3 DUP7 ADD PUSH2 0x11C4 JUMP JUMPDEST SWAP2 POP POP SWAP3 POP SWAP3 SWAP1 POP JUMP JUMPDEST PUSH0 DUP2 ISZERO ISZERO SWAP1 POP SWAP2 SWAP1 POP JUMP JUMPDEST PUSH2 0x1242 DUP2 PUSH2 0x122E JUMP JUMPDEST DUP3 MSTORE POP POP JUMP JUMPDEST PUSH0 PUSH1 0x20 DUP3 ADD SWAP1 POP PUSH2 0x125B PUSH0 DUP4 ADD DUP5 PUSH2 0x1239 JUMP JUMPDEST SWAP3 SWAP2 POP POP JUMP JUMPDEST PUSH32 0x4E487B7100000000000000000000000000000000000000000000000000000000 PUSH0 MSTORE PUSH1 0x32 PUSH1 0x4 MSTORE PUSH1 0x24 PUSH0 REVERT JUMPDEST PUSH32 0x4E487B7100000000000000000000000000000000000000000000000000000000 PUSH0 MSTORE PUSH1 0x11 PUSH1 0x4 MSTORE PUSH1 0x24 PUSH0 REVERT JUMPDEST PUSH0 PUSH2 0x12C5 DUP3 PUSH2 0xF5B JUMP JUMPDEST SWAP2 POP PUSH2 0x12D0 DUP4 PUSH2 0xF5B JUMP JUMPDEST SWAP3 POP DUP3 DUP3 ADD SWAP1 POP DUP1 DUP3 GT ISZERO PUSH2 0x12E8 JUMPI PUSH2 0x12E7 PUSH2 0x128E JUMP JUMPDEST JUMPDEST SWAP3 SWAP2 POP POP JUMP JUMPDEST PUSH32 0x4E487B7100000000000000000000000000000000000000000000000000000000 PUSH0 MSTORE PUSH1 0x12 PUSH1 0x4 MSTORE PUSH1 0x24 PUSH0 REVERT JUMPDEST PUSH0 PUSH2 0x1325 DUP3 PUSH2 0xF5B JUMP JUMPDEST SWAP2 POP PUSH2 0x1330 DUP4 PUSH2 0xF5B JUMP JUMPDEST SWAP3 POP DUP3 PUSH2 0x1340 JUMPI PUSH2 0x133F PUSH2 0x12EE JUMP JUMPDEST JUMPDEST DUP3 DUP3 MOD SWAP1 POP SWAP3 SWAP2 POP POP JUMP JUMPDEST PUSH0 PUSH2 0x1355 DUP3 PUSH2 0xF5B JUMP JUMPDEST SWAP2 POP PUSH2 0x1360 DUP4 PUSH2 0xF5B JUMP JUMPDEST SWAP3 POP DUP3 DUP3 SUB SWAP1 POP DUP2 DUP2 GT ISZERO PUSH2 0x1378 JUMPI PUSH2 0x1377 PUSH2 0x128E JUMP JUMPDEST JUMPDEST SWAP3 SWAP2 POP POP JUMP JUMPDEST PUSH0 PUSH2 0x1388 DUP3 PUSH2 0xF5B JUMP JUMPDEST SWAP2 POP PUSH2 0x1393 DUP4 PUSH2 0xF5B JUMP JUMPDEST SWAP3 POP DUP3 DUP3 MUL PUSH2 0x13A1 DUP2 PUSH2 0xF5B JUMP JUMPDEST SWAP2 POP DUP3 DUP3 DIV DUP5 EQ DUP4 ISZERO OR PUSH2 0x13B8 JUMPI PUSH2 0x13B7 PUSH2 0x128E JUMP JUMPDEST JUMPDEST POP SWAP3 SWAP2 POP POP JUMP INVALID LOG2 PUSH5 0x6970667358 0x22 SLT KECCAK256 0xAD SUB 0xD3 PUSH2 0xBD6C 0xC2 DUP9 SLOAD 0xFB 0xD7 0xCB DUP2 0x4D EXTCODECOPY 0xD9 BYTE MULMOD PUSH20 0x416121B0C84E7A07354F64269E64736F6C634300 ADDMOD SHL STOP CALLER "
		},
		"gasEstimates": {
			"creation": {
				"codeDepositCost": "1021800",
				"executionCost": "1059",
				"totalCost": "1022859"
			},
			"external": {
				"verifyTx(((uint256,uint256),(uint256[2],uint256[2]),(uint256,uint256)),uint256[1])": "infinite"
			},
			"internal": {
				"verify(uint256[] memory,struct Verifier.Proof memory)": "infinite",
				"verifyingKey()": "infinite"
			}
		},
		"methodIdentifiers": {
			"verifyTx(((uint256,uint256),(uint256[2],uint256[2]),(uint256,uint256)),uint256[1])": "f48d7729"
		}
	},
	"abi": [
		{
			"inputs": [
				{
					"components": [
						{
							"components": [
								{
									"internalType": "uint256",
									"name": "X",
									"type": "uint256"
								},
								{
									"internalType": "uint256",
									"name": "Y",
									"type": "uint256"
								}
							],
							"internalType": "struct Pairing.G1Point",
							"name": "a",
							"type": "tuple"
						},
						{
							"components": [
								{
									"internalType": "uint256[2]",
									"name": "X",
									"type": "uint256[2]"
								},
								{
									"internalType": "uint256[2]",
									"name": "Y",
									"type": "uint256[2]"
								}
							],
							"internalType": "struct Pairing.G2Point",
							"name": "b",
							"type": "tuple"
						},
						{
							"components": [
								{
									"internalType": "uint256",
									"name": "X",
									"type": "uint256"
								},
								{
									"internalType": "uint256",
									"name": "Y",
									"type": "uint256"
								}
							],
							"internalType": "struct Pairing.G1Point",
							"name": "c",
							"type": "tuple"
						}
					],
					"internalType": "struct Verifier.Proof",
					"name": "proof",
					"type": "tuple"
				},
				{
					"internalType": "uint256[1]",
					"name": "input",
					"type": "uint256[1]"
				}
			],
			"name": "verifyTx",
			"outputs": [
				{
					"internalType": "bool",
					"name": "r",
					"type": "bool"
				}
			],
			"stateMutability": "view",
			"type": "function"
		}
	]
}